:020000040800F2
:10000000C8060020C5010008C1070008B90700089C
:10001000BD07000801060008D11900080000000013
:10002000000000000000000000000000390B000884
:10003000050600080000000051090008D10F000863
:10004000DF010008DF010008DF010008DF01000810
:10005000DF010008DF010008DF010008DF01000800
:10006000DF010008DF010008DF010008DF010008F0
:10007000DF010008DF010008DF010008DF010008E0
:10008000DF010008DF010008DF010008DF010008D0
:10009000DF010008DF010008DF010008DF010008C0
:1000A000DF010008DF010008DF010008DF010008B0
:1000B0003D100008DF010008DF010008DF01000833
:1000C000DF010008DF010008DF010008DF01000890
:1000D000DF0100082D130008DF010008DF01000820
:1000E000DF010008DF010008DF01000800F002F86E
:1000F00000F059F814A696E8000CB244B344DA456F
:1001000001D100F050F8BAE80F000FA696E83000D1
:10011000A5EB040504EB0607AAEB0704A7F101070A
:100120004FEA15154FEA3414A4F10104AC4201D38F
:1001300000F039F813F0010F18BFFB1A43F0010368
:1001400000F001F8DBE718474819000068190000C3
:10015000103A24BF78C878C1FAD8520724BF30C8F3
:1001600030C144BF04680C60704700007047000055
:100170000023002400250026103A28BF78C1FBD8B0
:10018000520728BF30C148BF0B6070471FB500F051
:10019000A9F904000020002101F03CFC401C606033
:1001A0001FBD10B510BD00F0F4F91146FFF7EEFFCA
:1001B00001F018FC00F012FA03B4FFF7F2FF03BCE1
:1001C00000F016FA0948804709480047FEE7FEE7B5
:1001D000FEE7FEE7FEE7FEE7FEE7FEE7FEE7FEE7F7
:1001E00004480549054A064B70470000D50F000832
:1001F000ED000008C8000020C8060020C80200204A
:10020000C80200202DE9F04791460F46804604467B
:10021000002614F8015B2DB100F0C0F80068405DC5
:10022000C007F6D12B2D02D02D2D18D0641E4A46C2
:100230003946204600F0BEF827B13968A14201D105
:10024000C7F800804FF0020471050BD5404200282A
:1002500003DD00F0ABF80460A007BDE8F08746F4CA
:100260008066E4E70028F8DA00F0A0F804606FF098
:100270000040F2E7014A00F0EDB800000000002065
:1002800010B5431C02E010F8011B71B18107FAD1CF
:100290004FF0013202C88C1A8C4314EAC211F9D013
:1002A000C01A0A0603D0C01E10BDC01A10BD0A0431
:1002B00001D0801E10BD0902FCD0401E10BD10B53B
:1002C000044610F0030F08BF11F0030F40F0158033
:1002D0004FF0013E121FC0F20E8051F8043BA3EB19
:1002E0000E0C2CEA030C1CEACE1C08BF40F8043BA1
:1002F000F0D0A1F1040102F10402521E08DB11F852
:10030000013B00F8013B002BF7D1114600F0C4F887
:10031000204610BD4FF0013C50F8042B51F8043B2F
:100320009A4221D1A2EB0C03934313EACC1317D1C9
:1003300050F8042B51F8043B9A4215D1A2EB0C0360
:10034000934313EACC130BD150F8042B51F8043B20
:100350009A4209D1A2EB0C03934313EACC13DBD0EE
:100360004FF00000704700BFD01A01BAB1FA81F116
:1003700001F0180122FA01F0CB40DBB2C0B2C01A82
:10038000C1F120012CFA01F3D11A914311EAC311F2
:10039000E6D17047704770477047000010B500F015
:1003A000A1F8001D10BD00BF6D1600000048704789
:1003B000080000202DE9F05F824615468B46002795
:1003C0000AF10104B9460078302801D09DB113E04C
:1003D00014F8010B0127782803D0582801D045B123
:1003E0000AE00DB1102D07D1002714F8010B1025DC
:1003F00002E0082500E00A250026B0460EE005FBD5
:10040000080005FB06F101271FFA80F801EB1046F2
:10041000B6F5803F00D3B94614F8010B294600F029
:1004200065F80028EBDABBF1000F05D00FB1641EB0
:1004300000E05446CBF80040B9F1000F06D0FFF7BA
:10044000B5FF02210160C81EBDE8F09F48EA0640E2
:10045000FAE700002DE9F04115460E46040002D1EE
:100460002C6804B90BA4204600F05EF80444207800
:1004700070B127463146384600F046F804442078EB
:1004800010B1002004F8010B38462C60BDE8F08163
:100490000027F9E7000000004FF000020429C0F037
:1004A000128010F0030C00F04F80CCF1040CBCF172
:1004B000020F18BF00F8012BA8BF20F8022BA1EBF8
:1004C0000C0100F041B85FEAC17C24BF00F8012BA9
:1004D00000F8012B48BF00F8012B70470048704717
:1004E0000800002000487047280000203A2800D269
:1004F000303820F02002412A01D3A2F1370088428F
:1005000001D34FF0FF30704730B503461D781DB161
:100510000A4603E0AC4201D1181A30BD12F8014B73
:10052000002CF7D15B1CF1E730B503461D783DB1D7
:100530000A4612F8014B1CB1AC42FAD15B1CF5E73C
:10054000181A30BD4FF0000200B513469446964687
:10055000203922BFA0E80C50A0E80C50B1F12001D6
:10056000BFF4F7AF090728BFA0E80C5048BF0CC084
:100570005DF804EB890028BF40F8042B08BF7047E2
:1005800048BF20F8022B11F0804F18BF00F8012B54
:1005900070477546FFF7A2FFAE4605006946534611
:1005A00020F00700854618B020B5FFF719FEBDE81A
:1005B00020404FF000064FF000074FF000084FF0CA
:1005C000000BAC46ACE8C009ACE8C009ACE8C00917
:1005D000ACE8C00921F007018D46704710B504460C
:1005E000AFF300802046BDE81040FFF7E5BD0000F6
:1005F00001491820ABBEFEE726000200704700004C
:10060000FFE7FEE77047000088B0079006910020E2
:100610000590049003900290019000900698C07895
:1006200000F00F0005900698C078C006002806D597
:10063000FFE706988178059808430590FFE706983C
:10064000007800284BD0FFE7079800680190002051
:100650000390FFE7039807283DD8FFE7039901209F
:1006600088400290069800880299084004900498F7
:10067000029988422AD1FFE70398800002900299EC
:100680000F208840009000990198884301900598B8
:10069000029900FA01F10198084301900698C07888
:1006A000282806D1FFE7039901208840079948616F
:1006B0000BE00698C078482806D1FFE7039901208F
:1006C000884007990861FFE7FFE7FFE7FFE7039826
:1006D00001300390BEE7019807990860FFE706988C
:1006E0000088B0F5807F50DBFFE7079840680190F5
:1006F00000200390FFE70398072842D8FFE70398FC
:1007000000F10801012088400290069800880299B3
:10071000084004900498029988422DD1FFE703987D
:100720008000029002990F20884000900099019863
:10073000884301900598029900FA01F10198084355
:1007400001900698C078282808D1FFE7039800F1A7
:1007500008010120884007994861FFE70698C078A2
:10076000482808D1FFE7039800F1080101208840DC
:1007700007990861FFE7FFE7FFE70398013003905F
:10078000B9E7019807994860FFE708B07047000093
:1007900082B00190ADF80210BDF8020001994861E5
:1007A00002B0704782B00190ADF80210BDF80200AF
:1007B0000199086102B07047FFE7FEE7FFE7FEE737
:1007C0007047000084B003900020029001900F2039
:1007D00000900398C078B8B3FFE74EF60C50CEF205
:1007E00000000068C043C0F3022002900298C0F1EC
:1007F0000400019000980299C84000900398407846
:1008000001998840029003988078009901400298ED
:100810000843029002980001029002980399097817
:100820004EF20042CEF2000288540398027802F0A1
:100830001F01012088401C2101EAD2014EF2001262
:10084000CEF2000288500EE00398027802F01F01F9
:10085000012088401C2101EAD2014EF28012CEF222
:1008600000028850FFE704B07047000081B000909C
:1008700000980021C0F2FA5108434EF60C51CEF216
:100880000001086001B0704780B58AB008900791F8
:100890000692089841F66721C0F600010091FFF723
:1008A000E9FC0099059000200190FFF7E3FC009916
:1008B000024601980492FFF7DDFC0390059878B199
:1008C000FFE7049860B1FFE7039848B1FFE7059898
:1008D00041F68521C0F60001FFF71CFD20B1FFE7BE
:1008E00000208DF827002FE000200290049802A934
:1008F0000A22FFF787FC079908600298049988424A
:1009000004D0FFE70298007820B1FFE700208DF8BF
:10091000270019E000200290039802A90A22FFF79D
:1009200071FC0699086002980399884204D0FFE799
:100930000298007820B1FFE700208DF8270003E03F
:1009400001208DF82700FFE79DF827000AB080BD41
:100950007047000082B001908DF803109DF80300ED
:1009600048B1FFE7019A41F21C01C4F20201086894
:100970001043086008E0019A41F21C01C4F2020130
:10098000086890430860FFE702B0704782B00190AA
:100990008DF803109DF8030048B1FFE7019A41F27A
:1009A0001801C4F2020108681043086008E0019AC7
:1009B00041F21801C4F20201086890430860FFE7A1
:1009C00002B0704786B0059000200490039002901A
:1009D000019041F20400C4F20200006800F00C0033
:1009E00004900498009040B1FFE7009804280BD0D1
:1009F000FFE7009808280ED047E0059941F2002053
:100A0000C0F27A00086047E0059941F20020C0F288
:100A10007A00086040E041F20400C4F2020001687C
:100A200001F470110391006800F480300290039982
:100A3000022000EB91400390029848B9FFE7039829
:100A400040F60011C0F23D014843059908601BE0E3
:100A500041F20400C4F2020000688003002809D5B6
:100A6000FFE7039840F60011C0F23D0148430599A5
:100A7000086008E0039841F20021C0F27A0148437F
:100A800005990860FFE7FFE706E0059941F20020BD
:100A9000C0F27A000860FFE741F20400C4F20200ED
:100AA000016801F0F0010491049909090491049A84
:100AB00041F64421C0F600018A5C0192059B1A6848
:100AC000DDF804C022FA0CF25A60026802F4E06217
:100AD0000492049A120A0492049A8A5C0192059B79
:100AE0005A68DDF804C022FA0CF29A60026802F437
:100AF00060520492049AD20A0492049A895C019189
:100B0000059A5168019BD940D160006800F44040CB
:100B100004900498800B0490049941F64020C0F69C
:100B20000000405C01900599C868019AB0FBF2F0A2
:100B3000086106B0704700007047000080B500F003
:100B400001F880BD84B000200390029041F20001C2
:100B5000C4F20201086840F480300860FFE741F207
:100B60000000C4F20200006800F400300290039814
:100B700001300390FFE702990020019039B9FFE7A7
:100B80000398B0F5A06018BF01200190FFE701981D
:100B9000C0070028E3D1FFE741F20000C4F20200E1
:100BA00000688003002803D5FFE70120029002E0DF
:100BB00000200290FFE70298012851D1FFE742F29E
:100BC0000001C4F20201086840F0100008600868E3
:100BD00020F003000860086840F00200086041F25D
:100BE0000401C4F202010091086808600868086006
:100BF000086840F480600860086820F47C10086091
:100C0000086840F4E810086041F20001C4F20201F3
:100C1000086840F080700860FFE741F20000C4F20D
:100C2000020000688001002801D4FFE7F5E741F2E7
:100C30000401C4F20201086820F00300086008689B
:100C400040F002000860FFE741F20400C4F2020035
:100C5000006800F00C00082801D0FFE7F4E700E08E
:100C6000FFE704B07047000082B001900198B0F136
:100C7000FF3F04DCFFE701984042009002E001984A
:100C80000090FFE7009802B07047000080B58EB07A
:100C90000C2001210791FFF779FE07990846FFF71D
:100CA00059FE03200390ADF834008DF83600102073
:100CB0008DF8370040F60000C4F2010002900DA943
:100CC0000191FFF7A1FC019905200590ADF83400D2
:100CD00040F60040C4F201000490FFF795FC029832
:100CE0000399FFF755FD04980599FFF751FD40F270
:100CF000F310ADF82E004720ADF82A000020089030
:100D0000ADF83000ADF82C004FF0804006900DF1AA
:100D10002A0100F00BFA0698079A114600F0E2F952
:100D20000698089900F09AF9079808991C228DF8FE
:100D3000262002228DF827208DF828108DF8290012
:100D40000DF12600FFF73EFD089840F2AC01C2F21B
:100D5000000108704870486088600EB080BD0000D7
:100D600040F2AC00C2F200000078704780B582B05B
:100D7000019000910198002808D4FFE740F6004058
:100D8000C4F201000121FFF70DFD07E040F600402D
:100D9000C4F201000121FFF7FBFCFFE700980028E7
:100DA00008D4FFE740F60040C4F201000421FFF739
:100DB000F9FC07E040F60040C4F201000421FFF70F
:100DC000E7FCFFE702B080BD80B584B08DF80F006E
:100DD0009DF80F00012810D1FFE74FF080400190EF
:100DE000002100F099F901980121029100F02AF9FF
:100DF0000198029900F032F911E04FF08040002193
:100E000000F02CF940F60000C4F20100009001212E
:100E1000FFF7BEFC00980221FFF7BAFCFFE704B021
:100E200080BD000080B588B0069005910698FFF758
:100E30001BFF04900598FFF717FF03900498039990
:100E4000884203D9FFE70498019002E003980190DB
:100E5000FFE70198029040F2AC00C2F20000007877
:100E600020B1FFE700208DF81F0024E0029820B990
:100E7000FFE701208DF81F001DE000F0ABFD069894
:100E80000599FFF773FF049840F2AC01C2F200012C
:100E9000C860039808610298886000204860487024
:100EA000012000900870FFF78FFF00F097FD009879
:100EB0008DF81F00FFE79DF81F0008B080BD0000FF
:100EC00080B582B04FF08040012100F0DDF808B914
:100ED000FFE77AE04FF08040012100F0B3F840F2E4
:100EE000AC00C2F20000007820B9FFE70020FFF755
:100EF0006BFF6AE040F2AC00C2F200004168019171
:100F0000407848BBFFE7019840F2AC01C2F2000113
:100F1000C968884208D2FFE740F60000C4F2010029
:100F20000121FFF73FFCFFE7019840F2AC01C2F25C
:100F300000010969884208D2FFE740F60000C4F2C8
:100F400001000221FFF72EFCFFE740F2AC01C2F2E4
:100F500000010120487038E0019840F2AC01C2F273
:100F60000001C968884208D2FFE740F60000C4F2D9
:100F700001000121FFF70CFCFFE7019840F2AC01F2
:100F8000C2F200010969884208D2FFE740F600007A
:100F9000C4F201000221FFF7FBFBFFE740F2AC01C6
:100FA000C2F200014868013048600020487048687B
:100FB0008968884209D3FFE740F2AC01C2F2000120
:100FC00000200870FFF700FFFFE702B080BD0000BF
:100FD0007047000080B541F20002C4F202021068BE
:100FE00040F00100106041F20401C4F202010868FF
:100FF0000023CFF6FF031840086010684FF6FF7318
:10100000CFF6F66318401060106820F4802010605E
:10101000086820F4FE00086041F20801C4F20201F1
:101020004FF41F000860FFF789FD4EF60851CEF21D
:1010300000014FF00060086080BD000080B5FFF740
:101040003FFF80BD82B00190ADF80210BDF80200F4
:10105000C0430199088202B07047000082B001903D
:101060008DF803109DF8030030B1FFE7019908885F
:1010700040F00100088005E00199088820F0010097
:101080000880FFE702B0704783B00290ADF8061009
:1010900000208DF80500ADF80200ADF800000298C0
:1010A000008ABDF806100840ADF802000298808959
:1010B000BDF806100840ADF80000BDF8020040B1D0
:1010C000FFE7BDF8000020B1FFE701208DF8050023
:1010D00003E000208DF80500FFE79DF8050003B050
:1010E0007047000082B00190ADF802108DF8012029
:1010F0009DF8010038B1FFE7BDF802200199888909
:101100001043888106E0BDF8022001998889904348
:101110008881FFE702B0704782B00190ADF80210FD
:10112000BDF802000199888402B0704783B0029034
:1011300001910020ADF8020002980088ADF802008D
:10114000029842F60041C4F20101884225D0FFE72F
:10115000029843F20041C4F2010188421DD0FFE72A
:101160000298B0F1804F18D0FFE7029840F200419A
:10117000C4F20001884210D0FFE7029840F6000157
:10118000C4F20001884208D0FFE7029840F600410F
:10119000C4F2000188420ED1FFE7BDF8020020F042
:1011A0007000ADF8020001984188BDF802000843C4
:1011B000ADF80200FFE7029841F20001C4F200011D
:1011C000884216D0FFE7029841F20041C4F20001C4
:1011D00088420ED0FFE7BDF8020020F44070ADF861
:1011E00002000198C188BDF802000843ADF8020072
:1011F000FFE7BDF8020002990880019880880299F3
:1012000088850198008802990885029842F6004175
:10121000C4F20101884220D0FFE7029843F2004166
:10122000C4F20101884218D0FFE7029844F200019D
:10123000C4F20101884210D0FFE7029844F2004155
:10124000C4F20101884208D0FFE7029844F6000189
:10125000C4F20101884205D1FFE70198007A0299A2
:101260000886FFE702990120888203B070470000DA
:1012700080B586B00590FFE7059801780120202908
:10128000039008D0FFE7059800780938B0FA80F09D
:1012900040090390FFE70398C00720B1FFE70598D6
:1012A00001300590E8E705980290FEF7E9FF014656
:1012B000029808440490FFE70499059A002091429F
:1012C000019024D9FFE7049810F8011C012020297F
:1012D000009019D0FFE7049810F8011C012009299B
:1012E000009011D0FFE7049810F8011C01200D298F
:1012F000009009D0FFE7049810F8010C0A38B0FA02
:1013000080F040090090FFE700980190FFE7019806
:10131000C00738B1FFE70499481E0490002001F887
:10132000010CC9E7059806B080BD000080B500F04B
:1013300001F880BD80B582B043F60000C4F2010020
:1013400040F2255100F0E0F908B9FFE76DE043F6FF
:101350000000C4F2010000F027FB8DF807009DF8A3
:1013600007000D2805D0FFE79DF807000A2833D1B4
:10137000FFE740F2AA00C2F20000007888B1FFE760
:1013800040F2AA01C2F200010020087040F2690197
:10139000C2F20001087040F26801C2F20001087058
:1013A00043E040F26900C2F20000007808B9FFE7AC
:1013B0003BE040F26901C2F200010B7840F26A02A0
:1013C000C2F200020020D054087040F26801C2F25C
:1013D00000010120087028E040F26900C2F200001C
:1013E00000783E280FDCFFE79DF8070040F2690314
:1013F000C2F200031A78511C197040F26A01C2F25D
:101400000001885411E040F26901C2F2000100209D
:10141000087040F26801C2F20001087040F2AA01AF
:10142000C2F2000101200870FFE702B080BD000099
:1014300080B58EB00D900420019001210691FFF738
:10144000A5FA06994FF48040FFF7A0FA4FF4007018
:10145000ADF83000032005908DF8320018208DF88B
:10146000330040F60000C4F2010002900CA9039181
:10147000FFF7CAF8019A029803994FF48063ADF818
:1014800030308DF83320FFF7BFF80D98089000201A
:10149000ADF82400ADF82600ADF82800ADF82C001A
:1014A0000C20ADF82A0043F60000C4F201000490BD
:1014B00008A900F0CBF90498069900F0EDF804981B
:1014C000402100F0D7F80498069A40F2255100F028
:1014D00073F90599069825228DF81C208DF81D10AA
:1014E0008DF81E108DF81F0007A8FFF76BF90EB0DE
:1014F00080BD000080B594B040F2C000C2F2000090
:10150000007888B1FFE7FFF72BFC68B9FFE740F2EE
:10151000C001C2F200010020087041F67320C0F63D
:10152000000000F08BF8FFE740F26800C2F2000014
:10153000007808B9FFE765E000F04EFA40F26A0172
:10154000C2F2000104A800904022FEF7B8FE00207D
:101550008DF84F0040F26801C2F20001087000F0FF
:101560003FFA0098FFF784FE03900398007808B9CB
:10157000FFE747E0039841F68A21C0F60001FEF735
:10158000C9FE38B9FFE741F66C20C0F6000000F054
:1015900055F837E0039802A901AAFFF775F938B9A1
:1015A000FFE741F67820C0F6000000F047F829E098
:1015B000FFF7D6FB38B1FFE741F67E20C0F600000A
:1015C00000F03CF81EE002980199FFF72BFC38B9B7
:1015D000FFE741F67E20C0F6000000F02FF811E092
:1015E000FFF7BEFB38B1FFE740F2C001C2F20001D5
:1015F0000120087006E041F67320C0F6000000F0FC
:101600001DF8FFE714B080BD80B582B08DF80700EB
:101610009DF8071043F60000C4F2010000F0CCF979
:10162000FFE743F60000C4F20100802100F04AF811
:1016300008B9FFE7F5E702B080BD000080B582B0D1
:101640000190FFE70198007838B1FFE70198411C4D
:1016500001910078FFF7D8FFF4E7FFE743F60000B9
:10166000C4F20100402100F02DF808B9FFE7F5E7CA
:1016700002B080BD82B00190ADF80210BDF802004A
:101680008005002801D5FFE7FFE7BDF80200C04351
:101690000199088002B0704782B001908DF8031064
:1016A0009DF8030030B1FFE70199888940F40050AC
:1016B000888105E00199888920F400508881FFE73E
:1016C00002B0704782B00190ADF8021000208DF892
:1016D0000100BDF80200B0F5007F01D1FFE7FFE790
:1016E00001980088BDF802100840000420B1FFE70F
:1016F00001208DF8010003E000208DF80100FFE7D4
:101700009DF8010002B0704786B00590ADF8121048
:1017100000200390029001908DF80300BDF81200A4
:1017200040F66A11884201D1FFE7FFE79DF81200F9
:1017300040090190BDF8120000F01F0002900299CC
:101740000120884002900198012806D1FFE7059802
:10175000818902980840029010E00198022806D181
:10176000FFE70598018A02980840029005E0059875
:10177000818A029808400290FFE7FFE79DF8130076
:1017800003900399012088400390059801880398ED
:1017900008400390029838B1FFE7039820B1FFE7B3
:1017A00001208DF8030003E000208DF80300FFE71F
:1017B0009DF8030006B0704786B00590ADF8121092
:1017C0008DF8112000200390029001900090BDF848
:1017D000120040F66A11884201D1FFE7FFE7059841
:1017E00000909DF8120040090390BDF8120000F02F
:1017F0001F0002900299012088400190039801285F
:1018000004D1FFE700980C3000900CE00398022808
:1018100004D1FFE700981030009003E000981430E6
:101820000090FFE7FFE79DF8110030B1FFE7019A54
:10183000009908681043086005E0019A009908685B
:1018400090430860FFE706B07047000080B58CB099
:101850000B900A910020099008900790069005903F
:101860000A98808908B1FFE7FFE70B9805900B986D
:10187000008A099009984CF6FF71084009900A986F
:10188000C18809980843099009980B9908820B9818
:101890008089099009984EF6F311084009900A9939
:1018A00088880A89104349890143099808430990A7
:1018B00009980B9988810B98808A099009984FF6AE
:1018C000FF41084009900A988189099808430990C6
:1018D00009980B9988826846FFF774F8059843F6D3
:1018E0000001C4F20101884203D1FFE70398089088
:1018F00002E002980890FFE70B9880890004002816
:101900000AD5FFE70898192148430A990968490050
:10191000B0FBF1F0079009E00898192148430A99B3
:1019200009688900B0FBF1F00790FFE7079848F2DB
:101930001F51C5F2EB11A0FB01016FF00F0000EA8F
:1019400051000990079A09980009642100FB1120B1
:1019500006900B9880890004002810D5FFE70699AF
:10196000322000EBC10048F21F51C5F2EB11A0FB81
:101970000110C0F342110998084309900FE006993D
:10198000322000EB011048F21F51C5F2EB11A0FB11
:101990000110C0F34311099808430990FFE7099823
:1019A0000B9908810CB080BD81B0009000988088B0
:1019B0006FF35F2001B0704782B00190ADF8021064
:1019C000BDF802006FF35F200199888002B0704774
:1019D000FFE7FEE772B6704772B6704762B67047AF
:1019E00062B6704780B582B0002001904FF4A060CD
:1019F000FEF73CFF4FF41650FFF71AFDFFF746F9CC
:101A000041F65420C0F60000FFF718FEFFE7FFF78D
:101A100071FDFCE710B500290AD00878002807D02E
:101A200005487844FEF776FC002801D0002010BD60
:101A30000248784410BD00008E00000086000000BF
:101A4000020406080000000001020304010203046E
:101A50000607080953544D33322053544550205241
:101A6000454144590D0A0020090D0A00504F4E47C8
:101A70000D0A004F4B0D0A004552520D0A00425507
:101A800053590D0A004D4F56450050494E4700002E
:101A9000C01B0008000000200800000050010008E2
:101AA000C81B000808000020C006000070010008E4
:101AB0001001000043000000F8FFFFFF004040401D
:101AC0004040404040404141414141404040404011
:101AD00040404040404040404040404040050202BD
:101AE000020202020202020202020202022020207C
:101AF00020202020202020020202020202029090D8
:101B000090909090101010101010101010101010D5
:101B10001010101010101010020202020202888829
:101B20008888888808080808080808080808080835
:101B3000080808080808080802020202400000001D
:101B40000000000000000000000000000000000095
:101B50000000000000000000000000000000000085
:101B60000000000000000000000000000000000075
:101B70000000000000000000000000000000000065
:101B80000000000000000000000000000000000055
:101B90000000000000000000000000000000000045
:101BA0000000000000000000000000000000000035
:101BB0000000000000000000000000000000000025
:081BC00000000000000000001D
:04000005080000ED02
:00000001FF
